:020000020000FC
:040000000C9430002C
:080020000C9457000C946000E1
:100060006EE004E00EBF0FE50DBF0FEF07BB03E02E
:1000700001BBF4E0E0E0C0E6D0E000E008830983E3
:100080000A830B8308E10EBD02E00FBD0DE307BD3F
:1000900008E006BD0EB503600EBD04E009BF02E036
:1000A00003BF09B7016009BF78940000FECF0F932A
:1000B0000FB70F930E9479000F910FBF0F91189502
:1000C0000F930FB70F930E9469000F910FBF0F910D
:1000D000189500E022BB2395243009F42227C20F93
:1000E00008810F93E00F049108BB0F91E01BC21B26
:1000F0000895CF930E948A0059F4C3950E949100FD
:1001000039F4C3950E948A0019F4C3950E949100A6
:10011000CF910895188113951A3009F41127188387
:10012000089518811395163009F41127188308953E
:0A0400003F065B4F666D7C077F67C7
:00000001FF
