:020000020000FC
:040000000C9430002C
:080020000C9465000C946C00C7
:1000600004E00EBF0FE50DBF0FEF07BB03E001BBC0
:10007000F4E0E0E0C0E6D0E000E014E00E944700D9
:100080000E944F000E945D0078940C946300CF930F
:10009000DF9309931A95D9F7DF91CF91089508E17D
:1000A0000EBD02E00FBD0DE307BD08E006BD0EB5B5
:1000B00003600EBD04E009BF089502E003BF09B765
:1000C000016009BF08950000FECF0F930FB70E9493
:1000D00090000FBF0F9118950F930FB70E947300F8
:1000E0000FBF0F911895CF93DF93FF93EF932F934B
:1000F000D0E0C4E6288122BBD0E0C0E6C20F088170
:10010000E00F049108BB2395243009F42227D0E0A6
:10011000C4E628832F91EF91FF91DF91CF9108954D
:10012000DF93CF93C0E60E94A40059F4C3950E94C8
:10013000AB0039F4C3950E94A40019F4C3950E9442
:10014000AB00CF91DF910895188113951A3009F40F
:1001500011271883089518811395163009F4112773
:040160001883089563
:0A0400003F065B4F666D7C077F67C7
:00000001FF
