:020000020000FC
:040000000C9430002C
:080020000C9452000C945B00EB
:100060006EE004E00EBF0FE50DBF0FEF07BB03E02E
:1000700001BBF4E0E0E0C0E6D0E008E10EBD02E044
:100080000FBD0DE307BD08E006BD0EB503600EBD54
:1000900004E009BF04E003BF09B7016009BF789419
:1000A0000000FECF0F930FB70F930E9465000F91D2
:1000B0000FBF0F9118950F930FB70F930E94640015
:1000C0000F910FBF0F91189508951B8113951B83F6
:1000D0001A30B9F411271B831A8113951A8316302D
:1000E00081F411271A831981139519831A3049F461
:1000F00011271983188113951883163011F41127CD
:0401000018830895C3
:0A0400003F065B4F666D7C077F67C7
:00000001FF
