:020000020000FC
:040000000C9430002C
:040020000C945500E7
:100060006EE004E00EBF0FE50DBF0FEF07BB03E02E
:1000700001BBF4E0E0E008E10EBD02E00FBD0FEFD0
:1000800007BD0FEF06BD05E00EBD04E009BF789483
:1000900005E003BF059108BB0E9461000E94680053
:1000A000073611F4F4E0E0E0F5CF0F930FB70F93AC
:1000B0000E945E000F910FBF0F9118956A9551F342
:1000C000089544E00E9468004A9542BBD9F708951C
:1000D00025E032E33A95F1F72A95E1F7000008951B
:0A0400003F065B4F666D7C077F67C7
:00000001FF
