:020000020000FC
:1000000004E00EBF0FE50DBF0FEF07BBE0E0F2E02D
:100010000E941A00503049F00E9420000E942E00D9
:1000200022E00E944E000C94080027E00E944E003F
:100030000C9400005591089522E00E944E0008950E
:100040005F93EF93FF93F2E0E0EA5154E50F08F479
:10005000F3956491FF91EF915F9108956F3F19F4CB
:100060000E941C000EC00E94420018F422E00E9470
:10007000440021E00E94440021E00E944E006038CC
:1000800069F70895660F089512E3C09A0E94570019
:10009000C0980E9457001A95C1F7089512E3C098BE
:1000A0000E9457000E9457001A95C9F708950FEF54
:0600B0000A95F1F7089526
:0E020000204441544F522054454B4E494B0070
:1002A0006088A8904028D0082078B048E0A0F06886
:0A02B000D85010C030187098B8C87C
:00000001FF
